:040000000AEF00F013
:10000800FACF01F0FBCF02F041ED06F09AEF09F0CC
:10001800000E2E6E000E2D6E000E256E000E246E44
:10002800000E276E000E266E000E356E000E346E22
:10003800000E296E000E286E000E2B6E000E2A6E22
:10004800000E216E000E206E000E316E000E306E16
:100058001E6E000E2F6E1E501E6E000E336E1E504A
:100068001E6E000E226E1E501E6E000E366E1E5044
:10007800000162C02DF02E6A000162C024F0256ADA
:100088002D502E6E2D6A0001000163512D120001C2
:1000980063C026F0276A000164C034F0356A0001A5
:1000A80064C028F0296A3450356E346A00010001B2
:1000B80065513412000165C02AF02B6A000166C040
:1000C80020F0216A020E01010101006F0F0E0101EB
:1000D8000101016F34C01EF035C01FF0D8901F32E7
:1000E8001E32D8901F321E32D8901F321E321E5038
:1000F8002F6E3450070B336E3350D8A42F2A24C0E8
:1001080002F126C003F128C004F12AC005F12DC070
:1001180036F01E6E030E236E1E501E6E070E2C6EDA
:100128001E502FC038F074D02C50010D0001600E05
:10013800F324D96E0001000EF420DA6EDF50326E1F
:100148002C2A010E386432D01E6E000E376E1E50F7
:100158003750080AD8B45BD037C01EF0010E1F6EA6
:100168001E2A02D0D8901F361E2EFCD71F503214DC
:100178000009D8B40CD03650010D01017D0EF324CE
:10018800D96E0101010EF420DA6E010E0BD0365043
:10019800010D01017D0EF324D96E0101010EF42039
:1001A800DA6E000EDF6E362A372AD2D71E6E000EA0
:1001B800376E1E5029D037C01EF0010E1F6E1E2A42
:1001C80002D0D8901F361E2EFCD71F5032140009BB
:1001D800D8B40CD03650010D01017D0EF324D96E30
:1001E8000101010EF420DA6E010E0BD03650010D1C
:1001F80001017D0EF324D96E0101010EF420DA6E9F
:10020800000EDF6E362A372A33503762D4D73806C5
:1002180038668AD71E6E080E0F6E1E50A5EC08F0C1
:100228000FC030F010C031F0315001010101066FEC
:1002380030C007F18B821E6E000E386E1E5038508B
:10024800090AD8B410D0ACA2FED73850010D01016C
:10025800000EF324D96E0101010EF420DA6EDF508E
:10026800AD6E382AECD78B92BDEC09F01200000E67
:10027800216E000E206E000E266E000E256E000EFA
:10028800236E000E226E1E6E000E276E1E501E6E0E
:10029800000E246E1E501E6E000E296E1E501E6E1D
:1002A800000E286E1E50000162C020F0216A205006
:1002B800216E206A0001000163512012000164C010
:1002C80025F0266A2550266E256A00010001655131
:1002D8002512020E01010101006F020E0101010148
:1002E800016F25C01EF026C01FF0D8901F321E32A5
:1002F800D8901F321E32D8901F321E321E50276EE1
:100308002550070B246E2450D8A4272A27C002F1B1
:1003180020C028F01E6E030E2C6E1E5027C02AF037
:100328006ED0010E2A6435D01E6E000E2B6E1E5044
:100338002B50080AD8B461D02850010D01017D0E58
:10034800F324D96E0101010EF420DA6EDF50D8B41F
:1003580003D01E6E010E02D01E6E000E296E1E50B6
:100368002BC01EF029C01FF01E2A02D0D8901F36BD
:100378001E2EFCD72C50010D0101000EF324D96E5E
:100388000101010EF420DA6E1F50DF1A282A2B2AE9
:10039800CFD71E6E000E2B6E1E502CD02850010D8C
:1003A80001017D0EF324D96E0101010EF420DA6EED
:1003B800DF50D8B403D01E6E010E02D01E6E000EA0
:1003C800296E1E502BC01EF029C01FF01E2A02D015
:1003D800D8901F361E2EFCD72C50010D0101000E9F
:1003E800F324D96E0101010EF420DA6E1F50DF1AD2
:1003F800282A2B2A24502B62D1D72C2A2A062A668F
:1004080090D72C50020F0F6EA5EC08F00FC022F009
:1004180010C023F02C50010D0101000EF324D96EF9
:100428000101010EF420DA6E2350DF6E2C501E6E8F
:100438001F6A010E1E26000E1F220101000E1E2437
:10044800D96E0101010E1F20DA6E22C0DFFF8B82F8
:100458001E6E000E2A6E1E500FD0ACA2FED72A5078
:10046800010D0101000EF324D96E0101010EF420E3
:10047800DA6EDF50AD6E2A2A2C501E6E1F6A030EEC
:100488001E26000E1F222A501E181F10D8A4E5D7BA
:100498008B92BDEC09F01200000E216E000E206E4A
:1004A800000E266E000E256E000E236E000E226EC4
:1004B8001E6E000E276E1E501E6E000E246E1E50FD
:1004C8001E6E000E296E1E501E6E000E286E1E50E7
:1004D800000162C020F0216A2050216E206A0001CC
:1004E800000163512012000164C025F0266A2550DE
:1004F800266E256A0001000165512512020E0101D0
:100508000101006F010E01010101016F25C01EF0FC
:1005180026C01FF0D8901F321E32D8901F321E32CC
:10052800D8901F321E321E50276E2550070B246E9E
:100538002450D8A4272A27C002F120C028F01E6E14
:10054800030E2C6E1E5027C02AF06ED0010E2A64AE
:1005580035D01E6E000E2B6E1E502B50080AD8B4D4
:1005680061D02850010D01017D0EF324D96E0101DF
:10057800010EF420DA6EDF50D8B403D01E6E010EDF
:1005880002D01E6E000E296E1E502BC01EF029C010
:100598001FF01E2A02D0D8901F361E2EFCD72C50D2
:1005A800010D0101000EF324D96E0101010EF420A2
:1005B800DA6E1F50DF1A282A2B2ACFD71E6E000E9C
:1005C8002B6E1E502CD02850010D01017D0EF324F6
:1005D800D96E0101010EF420DA6EDF50D8B403D0D1
:1005E8001E6E010E02D01E6E000E296E1E502BC00C
:1005F8001EF029C01FF01E2A02D0D8901F361E2ECA
:10060800FCD72C50010D0101000EF324D96E010115
:10061800010EF420DA6E1F50DF1A282A2B2A2450E4
:100628002B62D1D72C2A2A062A6690D72C50020F83
:100638000F6EA5EC08F00FC022F010C023F02C506C
:10064800010D0101000EF324D96E0101010EF42001
:10065800DA6E2350DF6E2C501E6E1F6A010E1E26A6
:10066800000E1F220101000E1E24D96E0101010E89
:100678001F20DA6E22C0DFFF8B821E6E000E2A6EEC
:100688001E500FD0ACA2FED72A50010D0101000E5A
:10069800F324D96E0101010EF420DA6EDF50AD6E3D
:1006A8002A2A2C501E6E1F6A030E1E26000E1F22B9
:1006B8002A501E181F10D8A4E5D78B92BDEC09F05C
:1006C8001200000E356E000E346E000E296E000EFC
:1006D800286E000E2B6E000E2A6E000E276E000E7E
:1006E800266E000E2D6E000E2C6E000E2F6E000E64
:1006F8002E6E000E316E000E306E000E336E000E40
:10070800326E000E376E000E366E000E236E000E2F
:10071800226E000E256E000E246E1E6E000E3A6EBE
:100728001E50000E396E000E386E000E3C6E000E24
:100738003B6E000162C034F0356A3450356E346A5D
:100748000001000163513412000162C028F0296AD7
:10075800000163C02AF02B6A000164C026F0276AF2
:100768002650276E266A00010001655126120001F5
:1007780064C02CF02D6A000165C02EF02F6A0001BC
:1007880066C030F0316A1E6E070E3A6E1E50D89061
:100798003130336E3030326E000E3C6E000E3B6EE0
:1007A8003DD03A50010D0001600EF324D96E0001CE
:1007B800000EF420DA6EDF501E6E1E50366E376A59
:1007C8003650376E366A3A2A3A50010D0001600EEB
:1007D800F324D96E0001000EF420DA6EDF501E6E8D
:1007E8001E5036123A2A34C01EF035C01FF03B5056
:1007F8001E263C501F22D8901E34206E1F34216EB6
:100808000201000E2024D96E0201020E2120DA6EA8
:1008180036C0DEFF37C0DDFF3B4A3C2A32503B5C26
:1008280033503C58D8A0BDD7020E01010101006F1A
:10083800100E01010101016F28C002F12AC003F165
:100848002CC004F12EC005F11E6E080E0F6E1E504E
:10085800A5EC08F00FC038F010C039F0395001018C
:100868000101066F38C007F18B82000E3C6E000E46
:100878003B6E3B50090A3C10D8B40FD0ACA2FED74F
:100888000101000E3B24D96E0101010E3C20DA6EF5
:10089800DF50AD6E3B4A3C2AECD78B921E6E000EA1
:1008A8003A6E1E50BDEC09F01200000E256E000EC7
:1008B800246E000E276E000E266E1E6E030E2A6E24
:1008C8001E50000E236E000E226E000E296E000EC2
:1008D800286E000162C024F0256A2450256E246A1F
:1008E8000001000163512412000164C026F0276A48
:1008F8002650276E266A0001000165512612020E55
:1009080001010101006F040E01010101016F265070
:10091800262401010101026F24C028F025C029F016
:1009280060D0D89028341E6E29341F6E0201000E44
:100938001E24D96E0201020E1F20DA6EDECF20F0CF
:10094800DDCF21F0000E205C010E2158D8A020D068
:100958002A50010D0101000EF324D96E0101010E88
:10096800F420DA6ED89028341E6E29341F6E0201E6
:10097800000E1E24E16E0201020E1F20E26EE6CF79
:1009880020F0E5CF21F021C020F0216A20500BD0C3
:100998002A50010D0101000EF324D96E0101010E48
:1009A800F420DA6E000EDF6E2A2AD89028341E6EE4
:1009B80029341F6E0201000E1E24D96E0201020E98
:1009C8001F20DA6E2A50010D0101000EF324E16E9A
:1009D8000101010EF420E26EDFCFE7FF2A2A284A40
:1009E800292A24C01EF025C01FF026501E26275095
:1009F8001F221E50285C1F502958D8A092D72A5071
:100A0800020F0F6EA5EC08F00FC022F010C023F003
:100A18002A50010D0101000EF324D96E0101010EC7
:100A2800F420DA6E2350DF6E2A2A2A50010D0101C4
:100A3800000EF324D96E0101010EF420DA6E22C0F3
:100A4800DFFF020E2A268B82000E296E000E286E0A
:100A58000ED0ACA2FED70101000E2824D96E0101E8
:100A6800010E2920DA6EDF50AD6E284A292A2A5055
:100A78001E6E1F6A29501F1802E128501E18D8A49C
:100A8800E8D78B921E6E000E2A6E1E50BDEC09F040
:100A98001200000E256E000E246E000E276E000E4A
:100AA800266E1E6E030E2A6E1E50000E236E000E5A
:100AB800226E000E296E000E286E000162C024F01E
:100AC800256A2450256E246A00010001635124120E
:100AD800000164C026F0276A2650276E266A0001A6
:100AE800000165512612020E01010101006F030E7B
:100AF80001010101016F2650262401010101026F45
:100B080024C028F025C029F060D0D89028341E6E63
:100B180029341F6E0201000E1E24D96E0201020E36
:100B28001F20DA6EDECF20F0DDCF21F0000E205C32
:100B3800010E2158D8A020D02A50010D0101000E25
:100B4800F324D96E0101010EF420DA6ED89028340E
:100B58001E6E29341F6E0201000E1E24E16E020172
:100B6800020E1F20E26EE6CF20F0E5CF21F021C073
:100B780020F0216A20500BD02A50010D0101000EEF
:100B8800F324D96E0101010EF420DA6E000EDF6E37
:100B98002A2AD89028341E6E29341F6E0201000EAE
:100BA8001E24D96E0201020E1F20DA6E2A50010D92
:100BB8000101000EF324E16E0101010EF420E26E42
:100BC800DFCFE7FF2A2A284A292A24C01EF025C099
:100BD8001FF026501E2627501F221E50285C1F502B
:100BE8002958D8A092D72A50020F0F6EA5EC08F00A
:100BF8000FC022F010C023F02A50010D0101000E91
:100C0800F324D96E0101010EF420DA6E2350DF6E51
:100C18002A2A2A50010D0101000EF324D96E010180
:100C2800010EF420DA6E22C0DFFF020E2A268B8224
:100C3800000E296E000E286E0ED0ACA2FED7010160
:100C4800000E2824D96E0101010E2920DA6EDF502A
:100C5800AD6E284A292A2A501E6E1F6A29501F186D
:100C680002E128501E18D8A4E8D78B921E6E000EF9
:100C78002A6E1E50BDEC09F012000600E9CF03F001
:100C8800EACF04F0E1CF05F0E2CF06F0D9CF07F0C4
:100C9800DACF08F0F3CF09F0F4CF0AF0F6CF0BF073
:100CA800F7CF0CF0F8CF0DF0F5CF0EF09EAA01D0DB
:100CB80001D043D03D6601D001D019D0426601D0A1
:100CC80001D015D09EA801D001D011D04150010DFE
:100CD8000001600EF324D96E0001000EF420DA6ED4
:100CE800AECFDFFF412A000E406E01D000D0425047
:100CF800D8B401D001D056D0E0EC09F09EA801D0BC
:100D080001D050D04150010D0001600EF324D96E7E
:100D18000001000EF420DA6EAECFDFFF412A000E8C
:100D2800426E000E3D6E000E3E6E000E3F6E000ECF
:100D3800406E38D037D036D035D0F2A401D001D0AB
:100D480031D0F2EC09F0402A040E406401D001D001
:100D580026D0010E3D6E010E426E41C03EF0010EDE
:100D68003F6E3EC041F00ED04150010D0001600EB3
:100D7800F324D96E0001000EF420DA6E000EDF6E47
:100D8800412A00D041507D0AD8A401D001D0ECD727
:100D980000D0000E416ED59E000E406E00D0F29439
:100DA80001D000D00EC0F5FF0DC0F8FF0CC0F7FF52
:100DB8000BC0F6FF0AC0F4FF09C0F3FF08C0DAFF52
:100DC80007C0D9FF06C0E2FF05C0E1FF04C0EAFF83
:100DD80003C0E9FF02C0FBFF01C0FAFF1100000ECB
:100DE800206E000E1F6E000E226E000E216E000E89
:100DF8002C6E000E2B6E000E286E000E276E000E55
:100E0800246E000E236E000E266E000E256E000E58
:100E18002E6E000E2D6E000E2A6E000E296E000139
:100E280062C02BF02C6A2B502C6E2B6A000100013B
:100E380063512B12000163C01FF0206A000162C0D9
:100E480021F0226A000164C027F0286A2750286E22
:100E5800276A0001000165512712000165C023F0CF
:100E6800246A000164C025F0266A28502710D8B4E7
:100E78000AD001017D0E2B24D96E0101010E2C2010
:100E8800DA6EFF0E09D001017D0E2B24D96E010107
:100E9800010E2C20DA6E000EDF6E020E0101010138
:100EA800006F020E01010101016F1FC003F121C093
:100EB80002F125C004F123C005F11E6E080E0F6E65
:100EC8001E50A5EC08F00FC029F010C02AF02A50D7
:100ED80001010101066F29C007F18B82000E2E6EF9
:100EE800000E2D6E2D50090A2E10D8B40FD0ACA2CA
:100EF800FED70101000E2D24D96E0101010E2E200E
:100F0800DA6EDF50AD6E2D4A2E2AECD78B92BDECEF
:100F180009F01200000E216E000E206E000E236EE6
:100F2800000E226E000E296E000E286E000E2B6E2B
:100F3800000E2A6E000E256E000E246E000E276E1F
:100F4800000E266E000E2D6E000E2C6E000E2F6EFB
:100F5800000E2E6E000162C028F0296A2850296E02
:100F6800286A0001000163512812000163C020F0C3
:100F7800216A000162C022F0236A000164C02AF0DD
:100F88002B6A2A502B6E2A6A0001000165512A1229
:100F9800000165C024F0256A000164C026F0276AB4
:100FA800D89028341E6E29341F6E0201000E1E24AC
:100FB800D96E0201020E1F20DA6E2AC0DEFF2BC096
:100FC800DDFF020E01010101006F060E01010101A2
:100FD800016F20C003F122C002F126C004F124C031
:100FE80005F11E6E080E0F6E1E50A5EC08F00FC01E
:100FF8002CF010C02DF02D5001010101066F2CC0FE
:1010080007F18B82000E2F6E000E2E6E2E50090AED
:101018002F10D8B40FD0ACA2FED70101000E2E2499
:10102800D96E0101010E2F20DA6EDF50AD6E2E4A07
:101038002F2AECD78B92BDEC09F0120019681A68B8
:10104800000E146E000E136E000E166E000E156E56
:10105800000E186E000E176E000E1C6E000E1B6E32
:1010680027D00001600E1B24D96E0001000E1C2041
:10107800DA6EDF500F6E0F50191A000E186E080E38
:10108800176E18501710D8B411D019A008D0D890DE
:101098001A321932010E191AA00E1A1A03D0D89052
:1010A8001A3219321706D8A01806EBD71B4A1C2A81
:1010B800FE0E3E240F6E106AFF0E10221C50800A8E
:1010C800116E0F501B5C1050800A1158D8A0C9D758
:1010D8001950136E146A1AC00FF00FC010F0116A7D
:1010E8001050156E166A0001600E1B24D96E00019F
:1010F800000E1C20DA6EDF500F6E106A14501018A4
:1011080002E113500F18D8A41AD0010E1B240F6E39
:10111800000E1C20106E0001600E0F24D96E000115
:10112800000E1020DA6EDF50116E126A1650121877
:1011380002E115501118D8A402D0010E01D0000EFA
:1011480012001C681D68000E176E000E166E000E49
:10115800156E000E146E000E1B6E000E1A6E000E39
:10116800196E000E186E27D00101000E1824D96ED2
:101178000101010E1920DA6EDF50116E11501C1A90
:10118800000E1B6E080E1A6E1B501A10D8B411D020
:101198001CA008D0D8901D321C32010E1C1AA00EBB
:1011A8001D1A03D0D8901D321C321A06D8A01B066F
:1011B800EBD7184A192AFE0E0F24116E126AFF0E79
:1011C80012221950800A136E1150185C1250800AAE
:1011D8001358D8A0C9D71C50126E116A11C016F046
:1011E80012C017F01DC011F011C012F0136A12508E
:1011F800146E156A145016121550171216C01CF0EA
:1012080017C01DF01CC00FF01DC010F01200000127
:1012180000016051020AD8A450D022EC08F000095D
:10122800D8B44BD0000100016105D8A403D050EC1C
:1012380002F043D0000100016151020AD8A403D092
:101248003BEC01F03AD0000100016151030AD8A437
:1012580003D04DEC05F031D0000100016151040AC2
:10126800D8A403D059EC04F028D000010001615142
:10127800050AD8A403D0F3EC06F01FD00001000142
:101288006151060AD8A403D08EEC07F016D00001ED
:1012980000016151100AD8A403D065EC03F00DD009
:1012A8000001000161510F0AD8A403D00CEC00F032
:1012B80004D0000E01010101006F000E3F6E120004
:1012C800000E106E000E116E000E126E000E136EE0
:1012D800110E106E040E116E000E126E000E136EBB
:1012E800060E0F6ED89013321232113210320F2EB2
:1012F800F9D71006000E115A125A135AECEC09F0DD
:1013080094928B92000EAC6E000EAB6E949C948EF1
:10131800AC98AC9CAC96AC94AB88AB9C9D8A9D98E1
:101328007E9610C0AFFFAC8AAB8E120002EE00F0C2
:10133800640EEE6AE806FDE101EE00F0AF0EEE6A1B
:10134800E806FDE100EE60F07D0EEE6AE806FDE1DC
:10135800416A406A3F6A3E6A3D6AF60EF66E130EAF
:10136800F76E000EF86E0900F5CF42F00001D3EFDA
:1013780009F00F6E000E106E0F500DD01050010DB9
:101388000101000EF324D96E0101010EF420DA6E7A
:10139800000EDF6E102A7C0E1064F0D7120064EC89
:1013A80009F0F7EC09F0000E976E3F50D8A40BEC4B
:1013B80009F000C28EFFF9D7D59ED59CD59AD5865F
:1013C800F50ED76ED70ED66ED58EF294F28A12002D
:1013D8004F0EAB16AC9ACF0E9D161200F50ED76EB7
:1013E800D70ED66E1200D09EF28EF28C120001003B
:020000040020DA
:08000000FFFFFFFFFFFFFFFF00
:020000040030CA
:0E000000FF02191EF38381FFFFC0FFE0FF40E7
:00000001FF
