:040000000AEF00F013
:10000800FACF01F0FBCF02F009ED05F059EF08F047
:10001800000E216E000E206E000E266E000E256E5C
:10002800000E236E000E226E1E6E000E276E1E50EE
:100038001E6E000E246E1E501E6E000E296E1E507F
:100048001E6E000E286E1E50010102C120F0216AAA
:100058002050216E206A0101010103512012010183
:1000680004C125F0266A2550266E256A0101010182
:1000780005512512020E00010001606F020E0001F9
:100088000001616F25C01EF026C01FF0D8901F32F6
:100098001E32D8901F321E32D8901F321E321E5088
:1000A800276E2550070B246E2450D8A4272A27C072
:1000B80062F020C028F01E6E030E2C6E1E5027C062
:1000C8002AF06ED0010E2A6435D01E6E000E2B6EFB
:1000D8001E502B50080AD8B461D02850010D0201D7
:1000E800000EF324D96E0201020EF420DA6EDF50FE
:1000F800D8B403D01E6E010E02D01E6E000E296EFB
:100108001E502BC01EF029C01FF01E2A02D0D89006
:100118001F361E2EFCD72C50010D0001600EF32453
:10012800D96E0001000EF420DA6E1F50DF1A282A5B
:100138002B2ACFD71E6E000E2B6E1E502CD02850A7
:10014800010D0201000EF324D96E0201020EF42003
:10015800DA6EDF50D8B403D01E6E010E02D01E6EC8
:10016800000E296E1E502BC01EF029C01FF01E2A3B
:1001780002D0D8901F361E2EFCD72C50010D00013E
:10018800600EF324D96E0001000EF420DA6E1F50C1
:10019800DF1A282A2B2A24502B62D1D72C2A2A0688
:1001A8002A6690D72C50020F0F6E6DEC07F00FC027
:1001B80022F010C023F02C50010D0001600EF32432
:1001C800D96E0001000EF420DA6E2350DF6E2C5039
:1001D8001E6E1F6A010E1E26000E1F220001600EF1
:1001E8001E24D96E0001000E1F20DA6E22C0DFFF28
:1001F8008B821E6E000E2A6E1E500FD0ACA2FED748
:100208002A50010D0001600EF324D96E0001000E82
:10021800F420DA6EDF50AD6E2A2A2C501E6E1F6A4B
:10022800030E1E26000E1F222A501E181F10D8A4C7
:10023800E5D78B927CEC08F01200000E216E000EC0
:10024800206E000E266E000E256E000E236E000E28
:10025800226E1E6E000E276E1E501E6E000E246E3D
:100268001E501E6E000E296E1E501E6E000E286E49
:100278001E50010102C120F0216A2050216E206A1F
:100288000101010103512012010104C125F0266A70
:100298002550266E256A0101010105512512020E1D
:1002A80000010001606F010E00010001616F25C0AF
:1002B8001EF026C01FF0D8901F321E32D8901F3271
:1002C8001E32D8901F321E321E50276E2550070B43
:1002D800246E2450D8A4272A27C062F020C028F012
:1002E8001E6E030E2C6E1E5027C02AF06ED0010E13
:1002F8002A6435D01E6E000E2B6E1E502B50080A35
:10030800D8B461D02850010D0201000EF324D96E33
:100318000201020EF420DA6EDF50D8B403D01E6E4C
:10032800010E02D01E6E000E296E1E502BC01EF04C
:1003380029C01FF01E2A02D0D8901F361E2EFCD7C7
:100348002C50010D0001600EF324D96E0001000E3F
:10035800F420DA6E1F50DF1A282A2B2ACFD71E6EF8
:10036800000E2B6E1E502CD02850010D0201000EDD
:10037800F324D96E0201020EF420DA6EDF50D8B4ED
:1003880003D01E6E010E02D01E6E000E296E1E5086
:100398002BC01EF029C01FF01E2A02D0D8901F368D
:1003A8001E2EFCD72C50010D0001600EF324D96ECF
:1003B8000001000EF420DA6E1F50DF1A282A2B2ABB
:1003C80024502B62D1D72C2A2A062A6690D72C5083
:1003D800020F0F6E6DEC07F00FC022F010C023F073
:1003E8002C50010D0001600EF324D96E0001000E9F
:1003F800F420DA6E2350DF6E2C501E6E1F6A010E39
:100408001E26000E1F220001600E1E24D96E000158
:10041800000E1F20DA6E22C0DFFF8B821E6E000ED8
:100428002A6E1E500FD0ACA2FED72A50010D000133
:10043800600EF324D96E0001000EF420DA6EDF504E
:10044800AD6E2A2A2C501E6E1F6A030E1E26000E41
:100458001F222A501E181F10D8A4E5D78B927CECB7
:1004680008F01200000E256E000E246E000E276E96
:10047800000E266E1E6E030E2A6E1E50000E236E90
:10048800000E226E000E296E000E286E010102C1B8
:1004980024F0256A2450256E246A010101010351C4
:1004A8002412010104C126F0276A2650276E266A05
:1004B8000101010105512612020E00010001606FC1
:1004C800040E00010001616F26502624000100017E
:1004D800626F24C028F025C029F060D0D890283455
:1004E8001E6E29341F6E01017D0E1E24D96E010176
:1004F800010E1F20DA6EDECF20F0DDCF21F0000ED6
:10050800205C010E2158D8A020D02A50010D0001EE
:10051800600EF324D96E0001000EF420DA6ED89034
:1005280028341E6E29341F6E01017D0E1E24E16ED3
:100538000101010E1F20E26EE6CF20F0E5CF21F089
:1005480021C020F0216A20500BD02A50010D000153
:10055800600EF324D96E0001000EF420DA6E000E4E
:10056800DF6E2A2AD89028341E6E29341F6E0101A6
:100578007D0E1E24D96E0101010E1F20DA6E2A504D
:10058800010D0001600EF324E16E0001000EF4205D
:10059800E26EDFCFE7FF2A2A284A292A24C01EF064
:1005A80025C01FF026501E2627501F221E50285CEB
:1005B8001F502958D8A092D72A50020F0F6E6DEC01
:1005C80007F00FC022F010C023F02A50010D0001DF
:1005D800600EF324D96E0001000EF420DA6E235069
:1005E800DF6E2A2A2A50010D0001600EF324D96E0D
:1005F8000001000EF420DA6E22C0DFFF020E2A2668
:100608008B82000E296E000E286E0ED0ACA2FED78B
:100618000001600E2824D96E0001000E2920DA6E30
:10062800DF50AD6E284A292A2A501E6E1F6A2950AB
:100638001F1802E128501E18D8A4E8D78B921E6E06
:10064800000E2A6E1E507CEC08F01200000E256E7B
:10065800000E246E000E276E000E266E1E6E030E10
:100668002A6E1E50000E236E000E226E000E296E9A
:10067800000E286E010102C124F0256A2450256E5F
:10068800246A0101010103512412010104C126F069
:10069800276A2650276E266A010101010551261294
:1006A800020E00010001606F030E00010001616F7E
:1006B8002650262400010001626F24C028F025C0BE
:1006C80029F060D0D89028341E6E29341F6E01019D
:1006D8007D0E1E24D96E0101010E1F20DA6EDECFB9
:1006E80020F0DDCF21F0000E205C010E2158D8A0AB
:1006F80020D02A50010D0001600EF324D96E0001AC
:10070800000EF420DA6ED89028341E6E29341F6E3D
:1007180001017D0E1E24E16E0101010E1F20E26E13
:10072800E6CF20F0E5CF21F021C020F0216A20504B
:100738000BD02A50010D0001600EF324D96E000180
:10074800000EF420DA6E000EDF6E2A2AD8902834C4
:100758001E6E29341F6E01017D0E1E24D96E010103
:10076800010E1F20DA6E2A50010D0001600EF324DD
:10077800E16E0001000EF420E26EDFCFE7FF2A2AC7
:10078800284A292A24C01EF025C01FF026501E26FC
:1007980027501F221E50285C1F502958D8A092D7D6
:1007A8002A50020F0F6E6DEC07F00FC022F010C038
:1007B80023F02A50010D0001600EF324D96E0001C8
:1007C800000EF420DA6E2350DF6E2A2A2A50010D1B
:1007D8000001600EF324D96E0001000EF420DA6ED9
:1007E80022C0DFFF020E2A268B82000E296E000E21
:1007F800286E0ED0ACA2FED70001600E2824D96E58
:100808000001000E2920DA6EDF50AD6E284A292A31
:100818002A501E6E1F6A29501F1802E128501E1800
:10082800D8A4E8D78B921E6E000E2A6E1E507CEC60
:1008380008F01200000E336E000E326E000E296EA4
:10084800000E286E000E2B6E000E2A6E000E276E0C
:10085800000E266E000E2D6E000E2C6E000E2F6EF2
:10086800000E2E6E000E316E000E306E000E356ECC
:10087800000E346E000E236E000E226E000E256EE2
:10088800000E246E1E6E000E386E1E50000E376E5F
:10089800000E366E000E3A6E000E396E010102C16E
:1008A80032F0336A3250336E326A0101010103516A
:1008B8003212010102C128F0296A010103C12AF09C
:1008C8002B6A010104C126F0276A2650276E266A82
:1008D8000101010105512612010104C12CF02D6A04
:1008E800010105C12EF02F6A010106C130F0316AFD
:1008F8001E6E070E386E1E50000E3A6E000E396ED0
:100908003DD03850010D0101000EF324D96E0101CC
:10091800010EF420DA6EDF501E6E1E50346E356AFA
:100928003450356E346A382A3850010D0101000EF2
:10093800F324D96E0101010EF420DA6EDF501E6E29
:100948001E503412382A32C01EF033C01FF03950FE
:100958001E263A501F22D8901E34206E1F34216E56
:1009680001017D0E2024D96E0101010E2120DA6ECD
:1009780034C0DEFF35C0DDFF394A3A2A3050395CD1
:1009880031503A58D8A0BDD7020E00010001606F5F
:10099800100E00010001616F28C062F02AC063F0E8
:1009A8002CC064F02EC065F01E6E080E0F6E1E502F
:1009B8006DEC07F00FC036F010C037F0375000016B
:1009C8000001666F36C067F08B82000E3A6E000E2B
:1009D800396E3950090A3A10D8B40FD0ACA2FED7F4
:1009E8000001600E3924D96E0001000E3A20DA6E3B
:1009F800DF50AD6E394A3A2AECD78B921E6E000E44
:100A0800386E1E507CEC08F012000600E9CF03F0A7
:100A1800EACF04F0E1CF05F0E2CF06F0D9CF07F036
:100A2800DACF08F0F3CF09F0F4CF0AF0F6CF0BF0E5
:100A3800F7CF0CF0F8CF0DF0F5CF0EF09EAA01D04D
:100A480001D043D03B6601D001D019D0406601D017
:100A580001D015D09EA801D001D011D03F50010D72
:100A68000101000EF324D96E0101010EF420DA6EA3
:100A7800AECFDFFF3F2A000E3E6E01D000D04050BF
:100A8800D8B401D001D056D09FEC08F09EA801D070
:100A980001D050D03F50010D0101000EF324D96E52
:100AA8000101010EF420DA6EAECFDFFF3F2A000EFF
:100AB800406E000E3B6E000E3C6E000E3D6E000E4A
:100AC8003E6E38D037D036D035D0F2A401D001D020
:100AD80031D0B1EC08F03E2A040E3E6401D001D0BA
:100AE80026D0010E3B6E010E406E3FC03CF0010E59
:100AF8003D6E3CC03FF00ED03F50010D0101000E8D
:100B0800F324D96E0101010EF420DA6E000EDF6EB7
:100B18003F2A00D03F507D0AD8A401D001D0ECD79D
:100B280000D0000E3F6ED59E000E3E6E00D0F294AF
:100B380001D000D00EC0F5FF0DC0F8FF0CC0F7FFC4
:100B48000BC0F6FF0AC0F4FF09C0F3FF08C0DAFFC4
:100B580007C0D9FF06C0E2FF05C0E1FF04C0EAFFF5
:100B680003C0E9FF02C0FBFF01C0FAFF1100000E3D
:100B7800206E000E1F6E000E226E000E216E000EFB
:100B88002C6E000E2B6E000E286E000E276E000EC7
:100B9800246E000E236E000E266E000E256E000ECB
:100BA8002E6E000E2D6E000E2A6E000E296E0101AB
:100BB80002C12BF02C6A2B502C6E2B6A010101010B
:100BC80003512B12010103C11FF0206A010102C168
:100BD80021F0226A010104C127F0286A2750286EF3
:100BE800276A0101010105512712010105C123F0FE
:100BF800246A010104C125F0266A28502710D8B4B8
:100C08000AD00201000E2B24D96E0201020E2C20FC
:100C1800DA6EFF0E09D00201000E2B24D96E0201F4
:100C2800020E2C20DA6E000EDF6E020E00010001AB
:100C3800606F020E00010001616F1FC063F021C0E8
:100C480062F025C064F023C065F01E6E080E0F6EBA
:100C58001E506DEC07F00FC029F010C02AF02A5082
:100C680000010001666F29C067F08B82000E2E6EAE
:100C7800000E2D6E2D50090A2E10D8B40FD0ACA23C
:100C8800FED70001600E2D24D96E0001000E2E2023
:100C9800DA6EDF50AD6E2D4A2E2AECD78B927CECA3
:100CA80008F01200000E216E000E206E000E236E5A
:100CB800000E226E000E296E000E286E000E2B6E9E
:100CC800000E2A6E000E256E000E246E000E276E92
:100CD800000E266E000E2D6E000E2C6E000E2F6E6E
:100CE800000E2E6E010102C128F0296A2850296ED3
:100CF800286A0101010103512812010103C120F0F2
:100D0800216A010102C122F0236A010104C12AF00B
:100D18002B6A2A502B6E2A6A0101010105512A12F9
:100D2800010105C124F0256A010104C126F0276AE2
:100D3800D89028341E6E29341F6E01017D0E1E24A2
:100D4800D96E0101010E1F20DA6E2AC0DEFF2BC00A
:100D5800DDFF020E00010001606F060E00010001B8
:100D6800616F20C063F022C062F026C064F024C026
:100D780065F01E6E080E0F6E1E506DEC07F00FC06A
:100D88002CF010C02DF02D5000010001666F2CC012
:100D980067F08B82000E2F6E000E2E6E2E50090A01
:100DA8002F10D8B40FD0ACA2FED70001600E2E24AD
:100DB800D96E0001000E2F20DA6EDF50AD6E2E4A7C
:100DC8002F2AECD78B927CEC08F0120019681A686D
:100DD800000E146E000E136E000E166E000E156EC9
:100DE800000E186E000E176E000E1C6E000E1B6EA5
:100DF80027D00101000E1B24D96E0101010E1C2011
:100E0800DA6EDF500F6E0F50191A000E186E080EAA
:100E1800176E18501710D8B411D019A008D0D89050
:100E28001A321932010E191AA00E1A1A03D0D890C4
:100E38001A3219321706D8A01806EBD71B4A1C2AF3
:100E4800FE0E3C240F6E106AFF0E10221C50800A02
:100E5800116E0F501B5C1050800A1158D8A0C9D7CA
:100E68001950136E146A1AC00FF00FC010F0116AEF
:100E78001050156E166A0101000E1B24D96E01016F
:100E8800010E1C20DA6EDF500F6E106A1450101815
:100E980002E113500F18D8A41AD0010E1B240F6EAC
:100EA800000E1C20106E0101000E0F24D96E0101E6
:100EB800010E1020DA6EDF50116E126A16501218E9
:100EC80002E115501118D8A402D0010E01D0000E6D
:100ED80012001C681D68000E176E000E166E000EBC
:100EE800156E000E146E000E1B6E000E1A6E000EAC
:100EF800196E000E186E27D00001600E1824D96EE6
:100F08000001000E1920DA6EDF50116E11501C1A04
:100F1800000E1B6E080E1A6E1B501A10D8B411D092
:100F28001CA008D0D8901D321C32010E1C1AA00E2D
:100F38001D1A03D0D8901D321C321A06D8A01B06E1
:100F4800EBD7184A192AFE0E0F24116E126AFF0EEB
:100F580012221950800A136E1150185C1250800A20
:100F68001358D8A0C9D71C50126E116A11C016F0B8
:100F780012C017F01DC011F011C012F0136A125000
:100F8800146E156A145016121550171216C01CF05C
:100F980017C01DF01CC00FF01DC010F01200010199
:100FA80001010051020AD8A447D0EAEC06F0000972
:100FB800D8B442D0010101010105D8A403D021EC25
:100FC80001F03AD0010101010151020AD8A403D06D
:100FD8000CEC00F031D0010101010151030AD8A441
:100FE80003D02AEC03F028D0010101010151040AC1
:100FF800D8A403D036EC02F01FD001010101015141
:10100800050AD8A403D0BBEC05F016D001010101F4
:101018000151060AD8A403D056EC06F00DD0010100
:1010280001010151100AD8A403D01EEC04F004D029
:10103800000E00010001606F000E3D6E1200000EF0
:10104800106E000E116E000E126E000E136E110E51
:10105800106E040E116E000E126E000E136E060E48
:101068000F6ED89013321232113210320F2EF9D778
:101078001006000E115A125A135AABEC08F094924B
:101088008B92000EAC6E000EAB6E949C948EAC9856
:10109800AC9CAC96AC94AB88AB9C9D8A9D987E9694
:1010A80010C0AFFFAC8AAB8E120002EE00F0320E19
:1010B800EE6AE806FDE101EE00F0E10EEE6AE806F0
:1010C800FDE100EE60F07D0EEE6AE806FDE13F6AA4
:1010D8003E6A3D6A3C6A3B6A740EF66E110EF76E04
:1010E800000EF86E0900F5CF40F0000192EF08F00D
:1010F8000F6E000E106E0F500DD01050010D000134
:10110800600EF324D96E0001000EF420DA6E000E92
:10111800DF6E102A7C0E1064F0D7120023EC08F062
:10112800B6EC08F0000E976E3D50D8A4D3EC07F04B
:101138007FC18EFFF9D7D59ED59CD59AD586F50E59
:10114800D76ED70ED66ED58EF294F28A12004F0E55
:10115800AB16AC9ACF0E9D161200F50ED76ED70EB1
:0E116800D66E1200D09EF28EF28C12000100A4
:020000040020DA
:08000000FFFFFFFFFFFFFFFF00
:020000040030CA
:0E000000FF02191EF38381FFFFC0FFE0FF40E7
:00000001FF
